{
  "_format": "hh-sol-artifact-1",
  "contractName": "TokenSwap",
  "sourceName": "contracts/TokenSwap.sol",
  "abi": [
    {
      "inputs": [
        {
          "internalType": "contract RockToken",
          "name": "_tokenContractAds",
          "type": "address"
        }
      ],
      "stateMutability": "nonpayable",
      "type": "constructor"
    },
    {
      "anonymous": false,
      "inputs": [
        {
          "indexed": true,
          "internalType": "address",
          "name": "account",
          "type": "address"
        },
        {
          "indexed": false,
          "internalType": "address",
          "name": "token",
          "type": "address"
        },
        {
          "indexed": true,
          "internalType": "uint256",
          "name": "amount",
          "type": "uint256"
        },
        {
          "indexed": false,
          "internalType": "uint256",
          "name": "rate",
          "type": "uint256"
        }
      ],
      "name": "TokenBought",
      "type": "event"
    },
    {
      "anonymous": false,
      "inputs": [
        {
          "indexed": true,
          "internalType": "address",
          "name": "account",
          "type": "address"
        },
        {
          "indexed": false,
          "internalType": "address",
          "name": "token",
          "type": "address"
        },
        {
          "indexed": true,
          "internalType": "uint256",
          "name": "amount",
          "type": "uint256"
        },
        {
          "indexed": false,
          "internalType": "uint256",
          "name": "rate",
          "type": "uint256"
        }
      ],
      "name": "TokenSold",
      "type": "event"
    },
    {
      "inputs": [],
      "name": "buyToken",
      "outputs": [],
      "stateMutability": "payable",
      "type": "function"
    },
    {
      "inputs": [],
      "name": "rate",
      "outputs": [
        {
          "internalType": "uint256",
          "name": "",
          "type": "uint256"
        }
      ],
      "stateMutability": "view",
      "type": "function"
    },
    {
      "inputs": [
        {
          "internalType": "uint256",
          "name": "_amount",
          "type": "uint256"
        }
      ],
      "name": "sellToken",
      "outputs": [],
      "stateMutability": "nonpayable",
      "type": "function"
    },
    {
      "inputs": [],
      "name": "token",
      "outputs": [
        {
          "internalType": "contract RockToken",
          "name": "",
          "type": "address"
        }
      ],
      "stateMutability": "view",
      "type": "function"
    }
  ],
  "bytecode": "0x6080604052606460015534801561001557600080fd5b5060405161092b38038061092b833981810160405281019061003791906100f2565b806000806101000a81548173ffffffffffffffffffffffffffffffffffffffff021916908373ffffffffffffffffffffffffffffffffffffffff1602179055505061011f565b600080fd5b600073ffffffffffffffffffffffffffffffffffffffff82169050919050565b60006100ad82610082565b9050919050565b60006100bf826100a2565b9050919050565b6100cf816100b4565b81146100da57600080fd5b50565b6000815190506100ec816100c6565b92915050565b6000602082840312156101085761010761007d565b5b6000610116848285016100dd565b91505092915050565b6107fd8061012e6000396000f3fe60806040526004361061003f5760003560e01c80632397e4d7146100445780632c4e722e1461006d578063a482171914610098578063fc0c546a146100a2575b600080fd5b34801561005057600080fd5b5061006b600480360381019061006691906104aa565b6100cd565b005b34801561007957600080fd5b5061008261025a565b60405161008f91906104e6565b60405180910390f35b6100a0610260565b005b3480156100ae57600080fd5b506100b761044b565b6040516100c49190610580565b60405180910390f35b6000600154826100dd91906105f9565b9050804710156100ec57600080fd5b60008054906101000a900473ffffffffffffffffffffffffffffffffffffffff1673ffffffffffffffffffffffffffffffffffffffff166323b872dd3330856040518463ffffffff1660e01b81526004016101499392919061064b565b602060405180830381600087803b15801561016357600080fd5b505af1158015610177573d6000803e3d6000fd5b505050506040513d601f19601f8201168201806040525081019061019b91906106ba565b503373ffffffffffffffffffffffffffffffffffffffff166108fc829081150290604051600060405180830381858888f193505050501580156101e2573d6000803e3d6000fd5b50813373ffffffffffffffffffffffffffffffffffffffff167fa8a7473f10e62cf9687e243de1c3ac8b3cbc3dd04b96826beb3a65b59538581460008054906101000a900473ffffffffffffffffffffffffffffffffffffffff1660015460405161024e9291906106e7565b60405180910390a35050565b60015481565b6000600154346102709190610710565b90508060008054906101000a900473ffffffffffffffffffffffffffffffffffffffff1673ffffffffffffffffffffffffffffffffffffffff166370a08231306040518263ffffffff1660e01b81526004016102cc919061076a565b60206040518083038186803b1580156102e457600080fd5b505afa1580156102f8573d6000803e3d6000fd5b505050506040513d601f19601f8201168201806040525081019061031c919061079a565b101561032757600080fd5b60008054906101000a900473ffffffffffffffffffffffffffffffffffffffff1673ffffffffffffffffffffffffffffffffffffffff1663a9059cbb33836040518363ffffffff1660e01b81526004016103829291906106e7565b602060405180830381600087803b15801561039c57600080fd5b505af11580156103b0573d6000803e3d6000fd5b505050506040513d601f19601f820116820180604052508101906103d491906106ba565b50803373ffffffffffffffffffffffffffffffffffffffff167f9fa236593f411affe147142a606176190ea6b18be0643332f081175cfe608b6b60008054906101000a900473ffffffffffffffffffffffffffffffffffffffff166001546040516104409291906106e7565b60405180910390a350565b60008054906101000a900473ffffffffffffffffffffffffffffffffffffffff1681565b600080fd5b6000819050919050565b61048781610474565b811461049257600080fd5b50565b6000813590506104a48161047e565b92915050565b6000602082840312156104c0576104bf61046f565b5b60006104ce84828501610495565b91505092915050565b6104e081610474565b82525050565b60006020820190506104fb60008301846104d7565b92915050565b600073ffffffffffffffffffffffffffffffffffffffff82169050919050565b6000819050919050565b600061054661054161053c84610501565b610521565b610501565b9050919050565b60006105588261052b565b9050919050565b600061056a8261054d565b9050919050565b61057a8161055f565b82525050565b60006020820190506105956000830184610571565b92915050565b7f4e487b7100000000000000000000000000000000000000000000000000000000600052601260045260246000fd5b7f4e487b7100000000000000000000000000000000000000000000000000000000600052601160045260246000fd5b600061060482610474565b915061060f83610474565b92508261061f5761061e61059b565b5b828204905092915050565b600061063582610501565b9050919050565b6106458161062a565b82525050565b6000606082019050610660600083018661063c565b61066d602083018561063c565b61067a60408301846104d7565b949350505050565b60008115159050919050565b61069781610682565b81146106a257600080fd5b50565b6000815190506106b48161068e565b92915050565b6000602082840312156106d0576106cf61046f565b5b60006106de848285016106a5565b91505092915050565b60006040820190506106fc600083018561063c565b61070960208301846104d7565b9392505050565b600061071b82610474565b915061072683610474565b9250817fffffffffffffffffffffffffffffffffffffffffffffffffffffffffffffffff048311821515161561075f5761075e6105ca565b5b828202905092915050565b600060208201905061077f600083018461063c565b92915050565b6000815190506107948161047e565b92915050565b6000602082840312156107b0576107af61046f565b5b60006107be84828501610785565b9150509291505056fea264697066735822122072f000cc87c56ad377af2c12baa9ddea3207a57344437a0181352200433166e064736f6c63430008080033",
  "linkReferences": {},
  "deployedLinkReferences": {}
}